:020000040800F2
:10280000C010002055530008792A00087B2A0008D0
:102810007F2A0008832A0008872A00080000000099
:102820000000000000000000000000008B2A0008EB
:102830008D2A0008000000008F2A0008912A000855
:102840006F5300086F5300086F5300086F53000860
:102850006F5300086F5300086F5300086F53000850
:102860006F5300086F5300086F5300086F53000840
:102870006F5300086F5300086F5300086F53000830
:102880006F5300086F5300086F5300086F53000820
:102890006F5300086F5300086F5300086F53000810
:1028A0006F5300088B7B00086F5300086F530008BC
:1028B000717E00086F530008414700086F530008FD
:1028C0006F5300086F5300086F5300086F530008E0
:1028D0006F5300081B310008CD81000821830008D8
:1028E0006F5300086F5300086F53000800F002F8A0
:1028F00000F03AF80AA090E8000C82448344AAF160
:102900000107DA4501D100F02FF8AFF2090EBAE85D
:102910000F0013F0010F18BFFB1A43F00103184713
:10292000E460000004610000103A24BF78C878C158
:10293000FAD8520724BF30C830C144BF04680C60C5
:10294000704700000023002400250026103A28BF0D
:1029500078C1FBD8520728BF30C148BF0B60704711
:102960001FB51FBD10B510BD05F0F4FE1146FFF7F1
:10297000F7FF00F038F805F012FF03B4FFF7F2FF9D
:1029800003BC00F017F9000070B504460025334879
:102990004088022801D1012518E0304840880328EA
:1029A00001D1022512E02D484088042801D10325D9
:1029B0000CE02A484088052801D1022506E0274876
:1029C0004088062801D1022500E00025322C03D1E1
:1029D0000121284604F0DCFC642C03D100212846A8
:1029E00004F0D6FC70BD90B0342103A805F087FE3A
:1029F00000241BA2D2E900109268CDE901020091E7
:102A00004FF420514FF0006003F07FFA00F041F8DE
:102A100023E01648006828B1322103A8144A12683E
:102A2000904702E000208DF80C009DF80C0018B1D2
:102A300003A8104909688847322000F088F820462A
:102A4000FFF7A2FF601C84B2642C00DD002401F0BB
:102A500046FD05F02DFD05F04DFEDAE702090020E8
:102A60009000000A400040F0FF00000020012142D9
:102A7000140000202C000020704700BFFEE700BFBC
:102A8000FEE700BFFEE700BFFEE7704770477047F4
:102A9000704710B500F088F800F01CF804F0ACFCAA
:102AA00000F0DEFB49F2704004F01AFE05F06AF90E
:102AB0004FF4E13000F08DF800F048FC01F0AEFD7D
:102AC0004FF4165005F045FC4EF66021072005F046
:102AD000FFFD10BD10B56FF0040003F02EFA2E4874
:102AE00000682E49B0FBF1F02D49087008460078C7
:102AF00000EB4001C1EBC0104FF6FF7101EAC000CE
:102B00002849088010BD0146254A12784A434FF0F3
:102B1000E0235A6100229A611A46126942F00102CA
:102B20001A6100BF4FF0E022106900F001021AB1F3
:102B300000F48032002AF5D04FF0E022126922F032
:102B400001024FF0E0231A6100229A6170470146AA
:102B5000144A12884A434FF0E0235A6100229A61D6
:102B60001A46126942F001021A6100BF4FF0E022DA
:102B7000106900F001021AB100F48032002AF5D089
:102B80004FF0E022126922F001024FF0E0231A61B7
:102B900000229A61704700004400002000127A0071
:102BA000000000200200002010B54FF4A06003F0E8
:102BB00075F910BD014600BF704700BFFE4A12887C
:102BC00002F04002002AF9D0C2B2FB4B1B1D1A8052
:102BD000704710B586B00446012144F2040003F0AA
:102BE000F9F8F54802F084FD4FF40070ADF81400D8
:102BF00002208DF8160018208DF8170005A9EF485F
:102C000002F028FC4FF48060ADF8140004208DF829
:102C1000170005A9E94802F01DFC25208DF80000E9
:102C200000208DF801008DF8020001208DF80300CE
:102C3000684603F038F901940020ADF80800ADF8BB
:102C40000A00ADF80C00ADF810000C20ADF80E0035
:102C50000021D94802F01BFE01A9D74802F08BFDE4
:102C6000012240F22551D44802F01DFE012240F21B
:102C70002441D14802F017FE0121CF4802F007FE9F
:102C800006B010BDCE4800887047CE490988642937
:102C900004DACD49CB4A1288885C05E00021C94A94
:102CA0001180C9491288885C0021C84A1160C64A4F
:102CB000C44B1B88D154C249098821B1C049098835
:102CC000491EBF4A11800121C04A1160BD490988CF
:102CD000491CBC4A11807047BA490988642904DA42
:102CE000B949B84A1288885C05E00021B54A1180CC
:102CF000B5491288885C7047B24A1278521CD1B22A
:102D0000642902DAB04A505C02E00021AE4A505C0D
:102D100070472DE9F04104460F4600254FF00808A2
:102D200000BF03E000206055681C85B2BD42F9DB9E
:102D3000A34800880A285ADB002500260CE0FFF78C
:102D4000CBFFF02804D1FFF7D7FFFE2800D105E024
:102D5000FFF79BFF701C86B2642EF0DB00BF36E0ED
:102D6000FFF793FF6055072D2CD199488089D0B982
:102D70002079C0B9607996494988884204D1E078C1
:102D8000032801D14FF00A08E07806280BD1A0797A
:102D900048B9E0798E494988884202D14FF00C0841
:102DA00001E0002020708A48808901280AD120791A
:102DB000102807D16079022802D04FF0100801E0F6
:102DC0004FF01008681C85B2A84500D100E0C7E7A5
:102DD00000BF7B48008850B900207A4908807B49B1
:102DE00008607C49088001207B49C1F8940128468D
:102DF000BDE8F0812DE9F04105460E46002400BFF4
:102E000003E000202855601C84B2B442F9DB00BF07
:102E1000724800780028FBD07148006800284AD02A
:102E20000024002715E0FFF757FFFF2804D1FFF724
:102E300063FFFF2800D10EE0FFF74EFFF02804D11A
:102E4000FFF75AFFFE2800D105E0FFF71EFF781CB0
:102E500087B2642FE7DB00BF002419E0FFF715FFFE
:102E60002855601C84B2B44200D115E0FFF734FF4E
:102E7000FF2804D1FFF740FFFF2800D10CE0FFF747
:102E80002BFFFE2804D1FFF737FFF02800D103E025
:102E90004B4800880028E1D100BF4948008850B95C
:102EA000002048490880494908604A4908800120B3
:102EB0004949C1F894012046BDE8F08170B5054646
:102EC0000E46002400BF03E000202855601C84B299
:102ED000B442F9DB42480068002856D038480088E0
:102EE000072852DD002413E0FFF7F6FEF02804D196
:102EF000FFF702FFFE2800D10EE0FFF7EDFEFF28EE
:102F000004D1FFF7F9FEFF2800D105E0FFF7BDFE71
:102F10002B4800880028E7D100BF002419E0FFF704
:102F2000B4FE2855601C84B2B44200D115E0FFF70E
:102F3000D3FEF02804D1FFF7DFFEFE2800D10CE01D
:102F4000FFF7CAFEFF2804D1FFF7D6FEFF2800D105
:102F500003E01B4800880028E1D100BF1848008822
:102F600098B9002017490880184908601D48007862
:102F7000002804DD1B480078401E1A490870002014
:102F800014490880012011490860204670BD10B521
:102F90000B480088642830DA0748001D00880A4979
:102FA0000C4A1288885406480088401C044908804E
:102FB00008480088401C17E0003801400008014024
:102FC00010000020080000209400002094012742F7
:102FD000020900200A000020000027421200002001
:102FE000200121420C000020834908800846008807
:102FF000642807DB0020088004E040F225517F4868
:1030000002F02DFD10BD7E4800787E4908707B4897
:10301000001D00887A4908707B480078002838D164
:1030200078480078FF2818D108460078FF2814D186
:1030300000207649088001207349087071480078A3
:103040007349724A1288885470480088401C6F493E
:10305000088008206F4908801BE06A480078F02843
:1030600017D167480078FE2813D1002067490880EF
:10307000022065490870634801786548634A1288F0
:10308000815462480088401C6049088010206149D2
:1030900008805D48007800283ED0594800785C4997
:1030A0005A4A1288885459480088401C5749088059
:1030B0005548007801281ED108460088072808D105
:1030C0004F4800784F49097840EA012009305149BA
:1030D0000880504800884D49098888421CD14E48D4
:1030E0000078401C4C49087008204A49088000209C
:1030F0004549087010E047480088444909888842DB
:103100000AD145480078401C4349087008204149CD
:10311000088000203C490870704710B540F22551E6
:10312000364802F0A5FC28B100203C4908703C4814
:103130000068804740F22441304802F099FC48B1D1
:103140000120364908702D480088C4B22B48001D64
:103150000088C4B240F22771284802F089FC20B1EF
:1031600040F22771254802F07AFC10BD70B5044684
:103170000D460DB9002070BD0BE000BF80211F4837
:1031800002F060FC0028F9D020781C49091D088055
:10319000641C2800A5F10101CDB2EED100BFEAE721
:1031A00070B50446002547F6FF76002240F225510F
:1031B000124802F078FB10E02021104802F042FC97
:1031C00040B10E48001D00882070641C681CC5B208
:1031D00047F6FF76642D00D104E03000A6F101012E
:1031E0008EB2E9D100BF012240F22551034802F01E
:1031F0005AFB284670BD00000A000020003801403C
:103200001D0000201C0000201E00002010000020D7
:1032100094000020200000200C000020120000205C
:10322000180000204049088070470146042901DC4D
:10323000022901DAFF2070473B4841800020FAE76D
:10324000014601F47F40B0F57F4F03D0C8B2FF289C
:1032500000D009B9FF207047334841820020FAE7C7
:1032600010B504F0D2FE304800884FF6FF71884256
:1032700002DB01202C4908802B4840880A2803DC07
:1032800029484088022802DA062027494880264833
:10329000008A002803DD2448008A032802DB02207C
:1032A000214908822048408A00F47F40B0F57F4FD2
:1032B00006D01D48807CFF2802D01B48408A10B9E8
:1032C0000220194948820220174908820846008ACC
:1032D000012809D1154816490860164816490860A2
:1032E0001648174908600CE00F48008A022808D1E8
:1032F0000E480F49086013480F49086012481049EA
:1033000008600020084988804881C8800881888139
:10331000012088820220C882002008834883888395
:10332000C8830884C88510BD020900208F2F0008BB
:1033300018000020132D0008140000206139000837
:103340002C000020F52D00086350000808B501216D
:10335000042002F03FFD002240F225514E4802F0C9
:10336000A2FA10208DF8030003208DF802004FF41C
:103370000060ADF8000010208DF803006946474852
:1033800002F068F84FF48050ADF8000010208DF87E
:1033900003006946414802F05DF84FF48070ADF8D3
:1033A000000004208DF8030069463C4802F052F802
:1033B00000203B4908603B49C1F8B001012240F2BE
:1033C0002551354802F06FFA012035498C390860E3
:1033D00008BD2DE9F04104460D4616461F464FF440
:1033E0007A7802E00120FFF7B2FB5FEA0800A8F15B
:1033F00001011FFA81F804D029488C3800680028A0
:10340000F0D0B8F1000F03D14FF6FF70BDE8F081A6
:1034100000BF8021204802F015FB0028F9D02012BF
:103420001D49091D088000BF80211B4802F00AFBCE
:103430000028F9D0E0B21849091D088000BF80219A
:10344000154802F0FFFA0028F9D01348001D058046
:10345000F9B23046FFF78AFE00BFD7E770B50646DF
:103460000C464FF47A7502E00120FFF770FB28004C
:10347000A5F101018DB204D009488C3800680028FC
:10348000F2D015B94FF6FF7070BDE1B23046FFF7CC
:103490006DFE00BFF8E70000003801400008014061
:1034A000AC01214200002142F0B50B46FF24FF256C
:1034B00009E010F8016B86EA0401154E765C86EA95
:1034C0000504144E755C1E00A3F10107BBB2F0D1D8
:1034D00014705570F0BD30B502460B46002010E068
:1034E00012F8014B6040002109E000F001041CB11A
:1034F0008C2484EA600000E040104C1CE1B20829F2
:10350000F3DB1C00A3F10105ABB2E9D130BD000033
:10351000B4870008B4880008704710B50020FE4941
:103520000880FE48008901281ED00121072003F0F1
:103530002FFF0121082003F02BFF00BF04F04CF9FE
:103540000028FBD1012004F0E4FA0121042003F05B
:103550001FFF0021052003F01BFF0021062003F0C0
:1035600017FF0120ED49088110BD10B50020EA4980
:103570000880EA480089F0B10021072003F008FF25
:103580000021082003F004FF00BF04F025F9002803
:10359000FBD1022004F0BDFA0021042003F0F8FE64
:1035A0000021052003F0F4FE0021062003F0F0FEC8
:1035B0000020DA49088110BD10B50020D6490880E6
:1035C000D648C088012816D00121042003F0E0FE6F
:1035D0000021052003F0DCFE0021062003F0D8FEC8
:1035E0000120CE49C8800121072003F0D1FE01212E
:1035F000082003F0CDFE10BD10B50020C64908809C
:10360000C648C088B0B10021042003F0C1FE0021EB
:10361000052003F0BDFE0021062003F0B9FE0020C6
:10362000BE49C8800021072003F0B2FE0021082017
:1036300003F0AEFE10BD10B50020B7490880B748B2
:103640008088012834D00121072003F0A1FE012148
:10365000082003F09DFE00BF04F0BEF80028FBD157
:10366000AE48C089012804D10121AD4804F0D4F945
:103670000FE0AA48C089022804D10221A94804F019
:10368000CBF906E0A548C089032802D1012004F047
:1036900040FA0121042003F07BFE0021052003F005
:1036A00077FE0021062003F073FE01209B498880ED
:1036B00010BD10B50020984908809848408902281C
:1036C00034D00021072003F063FE0121082003F01D
:1036D0005FFE00BF04F080F80028FBD18F48C0894E
:1036E000012804D10121904804F096F90FE08B489D
:1036F000C089022804D102218C4804F08DF906E02B
:103700008648C089032802D1042004F002FA01216E
:10371000042003F03DFE0021052003F039FE0121C5
:10372000062003F035FE02207C49488101207B49B8
:10373000888010BD10B500207749088077484089FF
:10374000012833D00121072003F022FE00210820A8
:1037500003F01EFE00BF04F03FF80028FBD16F48C5
:10376000C089012804D10121714804F055F90EE007
:103770006A48C089022804D102216E4804F04CF93D
:1037800005E06648C089032801D104F0C2F901218F
:10379000042003F0FDFD0121052003F0F9FD0021C7
:1037A000062003F0F5FD01205C49488101205B49BA
:1037B000888010BD10B50020574908805748808880
:1037C000A0B30021072003F0E3FD0021082003F04F
:1037D000DFFD00BF04F000F80028FBD14F48C0898E
:1037E000012804D10121544804F016F90FE04B4898
:1037F000C089022804D10221504804F00DF906E0E6
:103800004648C089032802D1022004F082F9002131
:10381000042003F0BDFD0021052003F0B9FD0021C7
:10382000062003F0B5FD00203C49888000203B497C
:10383000488110BD10B586B0044641A30FCBCDE939
:103840000423CDE90201354880788DF80D00334816
:103850004088022820D1314800788DF80A000220E3
:103860008DF80F002D4800798DF810002B48807AD4
:103870008DF8110001AA0A2102A8FFF715FE9DF894
:1038800004008DF812009DF805008DF813000C213E
:1038900002A8FFF7E3FD60E02048408803281CD120
:1038A0001E4800788DF80A0001208DF80F001B4893
:1038B00080798DF8100001AA092102A8FFF7F4FD14
:1038C0009DF804008DF811009DF805008DF8120098
:1038D0000B2102A8FFF7C2FD3FE0104840880428F2
:1038E00039D10E4800788DF80A0001208DF80F00BC
:1038F0000A48007A8DF8100001AA092102A8FFF7F2
:10390000D3FD9DF804008DF811009DF805008DF899
:1039100012000B2102A81BE0240000200209002055
:10392000C8890008F0890008BE890008E6890008F7
:10393000B4890008DC890008D2890008FA890008E7
:10394000F0FEDF03000200040000000000000000A1
:10395000FFF784FD01E0FFF7DFFD06B010BD704703
:103960002DE9F843064600253446A8460027A94617
:1039700032E02078F0282ED16078FE282BD12079F3
:1039800048B9E078062801D10A250FE0E07803283D
:103990000CD108250AE02079102807D16079022887
:1039A00001D00E2500E00E254FF001096A46294698
:1039B0002046FFF779FD9DF80000615D884207D140
:1039C0009DF80110681C205C814201D1012701E0B3
:1039D000FFF7C5FF03E0641C20780028C9D100BFB1
:1039E000B9F1010F32D1012F30D1E07806282CD166
:1039F0006079FFF71AFCFF2801D1BDE8F883607AEF
:103A0000FD4908806079022801D1A07AC881E07A56
:103A1000F9490882607B217B40EA0120F64948820F
:103A200004F0ECFA0020F44988810021092003F019
:103A3000AFFC0021012003F0ABFC0021022003F0C9
:103A4000A7FC0021032003F0A3FCD6E7002F19D028
:103A5000A078E9490988884200D0CEE7E0780328B9
:103A600011D1207900280DD16079E3494988884235
:103A7000F9D1E079A17900EB01201FFA80F84046E6
:103A8000FFF7D8FE7DE0E07806287AD1A0790028FB
:103A900075D1E079D8494988884270D1D6484088A4
:103AA000032811D1207920282CD16079212802D136
:103AB000FFF782FD26E06079222802D1FFF79CFD06
:103AC00020E0FFF729FD1DE0CB484088022819D0EF
:103AD000C9484088042815D12079302807D1607959
:103AE000312802D1FFF719FD01E0FFF715FD20791C
:103AF000402807D16079412802D1FFF70EFD01E08F
:103B0000FFF70AFDBC484088022819D1207A10B975
:103B1000FFF750FE35E0207A01280ED1607A0128A7
:103B200002D1FFF707FE2CE0607A022802D1FFF7EE
:103B3000C0FD26E0FFF77FFD23E0FFF7EDFC20E06E
:103B4000AD48408803280AD1207A10B9FFF754FD08
:103B500017E0207A012814D1FFF72EFD11E0A648C6
:103B6000408804280DD1207A10B9FFF7FEFC08E048
:103B7000207A012805D1FFF7D0FC02E0FFE7FFF72C
:103B8000CBFC00BF39E730B587B005460C46FF20B7
:103B90008DF808008DF809009748008800128DF80C
:103BA0000A00954800788DF80B008DF80C50002025
:103BB0008DF80D0002208DF80E0020128DF80F00F8
:103BC000E0B28DF8100001AA092102A8FFF76CFCF1
:103BD0009DF804008DF811009DF805008DF8120085
:103BE0000B2102A8FFF73AFC07B030BD30B58BB00F
:103BF00005460C46282101A804F081FD00207F49DC
:103C00000880032D79D11E2C05DD04210320FFF748
:103C1000BAFF0BB030BDFF208DF804008DF8050011
:103C20007548008800128DF80600734800788DF8FA
:103C3000070003208DF8080020128DF80900E0B27B
:103C40008DF80A0000208DF80B008DF80C006A48F2
:103C500080788DF80D006848007D8DF80E0066486C
:103C6000807D8DF80F006448007C8DF8100062485C
:103C700000798DF81100604880798DF812005E4857
:103C8000007A8DF813005C48807A8DF814005A4849
:103C9000007E8DF815005848807E8DF81600564835
:103CA000007F8DF817005448807F8DF81800524827
:103CB00090F820008DF819004F48408A00128DF8C6
:103CC0001A004D48807C8DF81B004B48807B8DF896
:103CD0001C00494890F82E008DF81D004648408889
:103CE00002280BD1444890F822008DF81E0042486B
:103CF00090F824008DF81F001DE031E03E48408818
:103D000003280AD13C4890F826008DF81E003A4856
:103D100090F828008DF81F000DE0374840880428EF
:103D200009D1354890F82A008DF81E00324890F8E5
:103D30002C008DF81F00E01D81B26A4601A8FFF734
:103D4000B3FB9DF8001001AAE01D11549DF801106D
:103D5000401C1154401C81B201A8FFF77FFB34E0E6
:103D6000062D2DD1FF208DF804008DF80500224886
:103D7000008800128DF806001F4800788DF80700B3
:103D800006208DF8080000208DF8090002208DF82B
:103D90000A0000208DF80B008DF80C006A460921FE
:103DA00001A8FFF781FB9DF800008DF80D009DF83C
:103DB00001008DF80E000B2101A8FFF74FFB04E076
:103DC00005210320FFF7DFFE23E700BF21E710B541
:103DD000014600220020084B5B88022B10D14B7C4F
:103DE0001BB14B7C044C63840120CB7C8BB3CB7C1C
:103DF000014CA38401202CE00209002024000020B3
:103E0000F84B5B88032B10D191F8223023B191F845
:103E10002230F44CE384012091F82430CBB191F8A6
:103E20002430F04C2385012013E0EE4B5B88042BFB
:103E30000FD18B7D4C7D43EA042212B1E94B9A8568
:103E400001204B7E0C7E43EA042212B1E54B5A85D9
:103E5000012010BD2DE9F84304460026A0460027A6
:103E6000B14600250120E04908702078FF2809D1DB
:103E70006078FF2806D1A079617940EA01200930F5
:103E800086B222E02078F0281ED16078FE281BD16F
:103E9000E079A17940EA01200A3086B22079102821
:103EA00013D1D0488089012808D1E078062802D0B3
:103EB000E078072809D14FF0010906E00821062023
:103EC000FFF761FEBDE8F883FCE7B01E81B26A46E9
:103ED0002046FFF7E9FA9DF80010B01E205C8142F1
:103EE00006D19DF80110701E205C814200D101278F
:103EF000B9F1000F7DD0002FFCD0E07806287DD1ED
:103F0000E079A17940EA01256079FFF78EF9FF2871
:103F100000D1D7E7022D05DB607A217A40EA012043
:103F2000B0490880032D05DB6079022802D1A07A10
:103F3000AC49C881042D02DBE07AAA490882062D2B
:103F400005DB607B217B40EA0120A6494882082DE1
:103F50001CDB6079022806D1E07BA17B40EA0120CE
:103F6000A049488412E06079032806D1E07BA17B58
:103F700040EA01209B49C88408E06079042805D103
:103F8000E07BA17B40EA0120964948850A2D1CDB95
:103F90006079022806D1607C217C40EA01209149A9
:103FA000888412E06079032806D1607C217C40EA95
:103FB00001208C49088508E06079042805D1607CDF
:103FC000217C40EA01208749888504F017F8002009
:103FD000844988810021092003F0DAF900210120B9
:103FE00003F0D6F90021022003F0D2F900210320CA
:103FF00001E051E002E003F0CBF94CE0E078072863
:1040000049D12079102846D160797649498888427B
:1040100041D1207A01280CD10021052003F0B8F904
:104020000121042003F0B4F90021062003F0B0F9C7
:104030002EE0207A02280CD10121052003F0A8F9F6
:104040000021042003F0A4F90121062003F0A0F9C7
:104050001EE0207A03280CD10121052003F098F9F5
:104060000021042003F094F90021062003F090F9C8
:104070000EE0207A04280BD10021052003F088F9F6
:104080000021042003F084F90121062003F080F9C7
:10409000207A5449088615E7002F2ED0E078A178C1
:1040A00040EA01254F480088A84201D005B109E740
:1040B00055B994F826004B494988884200D001E759
:1040C00001204A49087002E0002048490870207920
:1040D000032824D1A079617940EA0125032D19D163
:1040E000607A01280AD140490870207AE17940EAD3
:1040F000012520792946FFF779FDE7E1607A02285A
:1041000003D1002038490870E0E102210620FFF7C2
:104110003AFDD7E603210620FFF735FDD2E62079E8
:10412000062870D13048007818B930480078012846
:104130006AD1A079617940EA01251F2D04DA0321B3
:104140000620FFF720FDBDE6607F01285DD12549EF
:10415000C88208464088022825D1A07F10B9FFF701
:1041600029FBA2E1A07F012818D194F821000128A1
:1041700002D1FFF7DFFA98E194F82100022802D17A
:10418000FFF797FA91E194F8210010B9FFF753FA7D
:104190008BE102210620FFF7F6FC93E602210620C0
:1041A000FFF7F1FC8EE60F48408803280FD1E07F2F
:1041B000012802D1FFF700FA77E1E07F10B9FFF79D
:1041C0001BFA72E102210620FFF7DDFC7AE60548C2
:1041D00040880428C5D194F82000012808D1FFF7B1
:1041E0009CF962E102090020330000203400002025
:1041F00094F8200010B9FFF7B8F956E10221062023
:10420000FFF7C1FC5EE65DE157E1607F022872D1F5
:10421000FB49C882207FE17E40EA0125F848408AB8
:10422000A84204D007210620FFF7ADFC4AE6F54876
:10423000007810B92046FFF7CAFDF14840880228EF
:1042400060D1F14800780A281CDDF0480078012888
:1042500005D1FFF72EFA0120E949488317E0EB4822
:104260000078022805D1FFF765FA0220E449488367
:104270000DE0E648007850B9FFF79CFA0020E049CD
:10428000488304E0FFF796FA0020DD494883E0798F
:10429000DB49498C884214DDDC480078012809D1CB
:1042A000D94800780A2887DCD7480078401CD649CE
:1042B0000870FAE00120D54908700020D249087042
:1042C000F3E0E079CE49898C884215DACF4800784E
:1042D000022809D1CC4800780A288EDCCA48007828
:1042E000401CC9490870E0E00220C849087000205D
:1042F000C5490870D9E0D3E00020C4490870C2491C
:104300000870D2E0BE48408803285FD1BE480078DC
:104310000A281CDDBD480078012805D1FFF74CF9BB
:104320000120B749888317E0B8480078022805D1F2
:10433000FFF762F90220B24988830DE0B3480078A4
:1043400050B9FFF759F90020AD49888304E0FFF721
:1043500053F90020AA498883607AA949C98C884208
:1043600014DDAA480078012809D1A74800780A2856
:1043700004DCA5480078401CA349087095E00120A2
:10438000A24908700020A04908708EE0607A9C491C
:10439000098D884214DA9D480078022809D19A488C
:1043A00000780A2804DC98480078401C9649087078
:1043B0007BE002209549087000209349087074E062
:1043C000002092490870904908706EE08C4840883F
:1043D00004286AD18C4800780A281BDD8B480078B5
:1043E000012806D1FFF799F801208549C883088480
:1043F00016E086480078022802D1FFF7B6F80FE0F1
:104400008248007860B9FFF7B0F800207C49C88383
:10441000088405E0FFF7A9F800207949C8830884DB
:10442000207BE17A40EA01207549898D884214DDBC
:1044300076480078012809D1734800780A2834DCCE
:1044400071480078401C704908702EE001206F49C7
:10445000087000206C49087027E0E07BA17B40EAEF
:1044600001206749498D884214DD68480078012899
:1044700009D1654800780A2817DC63480078401C99
:104480006149087011E001206049087000205E4910
:1044900008700AE000205D4908705B49087004E07C
:1044A00002210620FFF76FFB0CE55648007868B93B
:1044B00002210620FFF79AFB08E006210846FFF7D5
:1044C00062FBFFE405210620FFF75DFB00BFF9E476
:1044D00001464F4A107800224D4B1A70704710B5B4
:1044E00000240020FFF7F4FF0446012C33D1444898
:1044F000808938B90120424988810121092002F0D0
:1045000047FF52E043480078401C42490870084683
:104510000078012806D0022809D003280CD00428EE
:1045200014D10EE00021012000F0DBFB12E001219C
:10453000084600F0D6FB0DE00221012000F0D1FB7F
:1045400008E00021084600F0CCFB03E000203149E0
:10455000087000BF29E0022C27D10020284988815B
:104560000021092002F014FF0021012002F010FFB9
:104570000021022002F00CFF0021032002F008FFBE
:104580000021042002F004FF0021052002F000FFBA
:104590000021062002F0FCFE0021084600F0A1FBED
:1045A000FEF75EFE00201B4908701548808901282F
:1045B00024D10020184908801148008E01281DDBF5
:1045C0000F48008E042819DC012003F03BFC03F0A7
:1045D000F5FA98B10A4991F8300003F054FB002035
:1045E000074908860021042002F0D2FE00210520A0
:1045F00002F0CEFE0021062002F0CAFE10BD00002F
:10460000020900203400002030000020310000208A
:104610003200002035000020240000201FB50121B9
:10462000042001F0E4FB40F2CF20ADF808004FF485
:104630007A70ADF804000020ADF80A00ADF806006D
:1046400001A9484801F06CFD1E208DF800000020F3
:104650008DF8010002208DF8020001208DF8030082
:10466000684601F020FC012211463E4802F0CFF8D6
:1046700001213C4802F0B0F81FBD3B48006890B9EA
:104680003A480078F8B93A480078401C3849087030
:1046900008460078502816DB0220364908700120B1
:1046A000324908700FE032480078012806DD3048B2
:1046B0000078502802DA01202E49087000202C4989
:1046C00008702A490870704710B52B480088D0B18F
:1046D0002A48008840B129480088401E27490880A0
:1046E00001202749C8850EE000202349088024497D
:1046F000C88524480178072002F04AFE2148017845
:10470000082002F045FE10BD10B51F480088401C6F
:104710001D49088008460088642810DB00200880B6
:104720001A480088401C19490880084600881E283D
:1047300005DDFEF761FFFFF73DF8FEF716FF10BD40
:1047400010B50121074802F010FB48B1FFF7DCFF6C
:1047500000F0F3FCFFF791FF0121024802F016FB85
:1047600010BD0000000800400881214237000020F1
:104770003600002032000020260000202800002003
:10478000020900202A000020380000202400002018
:1047900030B587B005460C46FF208DF808008DF82F
:1047A0000900FE48008800128DF80A00FB480078D6
:1047B0008DF80B0045F080008DF80C0000208DF87E
:1047C0000D0002208DF80E0020128DF80F00E0B2CF
:1047D0008DF8100001AA092102A8FEF765FE9DF8D8
:1047E00004008DF811009DF805008DF812000B21D2
:1047F00002A8FEF733FE07B030BD10B50446E079DD
:10480000022815D120790021FFF7C2FF6420FEF7AE
:104810009EF900BFE248006800F4E060E149084307
:10482000001DDF490860BFF3408F00BF00BFFEE7F7
:1048300020790221FFF7ACFF10BD10B50446D74820
:10484000808920B920790821FFF7A2FF10BDE07907
:10485000022804D020790221FFF79AFFF6E7207A98
:1048600001280CD10021052002F092FD0121042035
:1048700002F08EFD0021062002F08AFD2EE0207A53
:1048800002280CD10121052002F082FD0021042024
:1048900002F07EFD0121062002F07AFD1EE0207A62
:1048A00003280CD10121052002F072FD0021042013
:1048B00002F06EFD0021062002F06AFD0EE0207A73
:1048C00004280BD10021052002F062FD0021042004
:1048D00002F05EFD0121062002F05AFD207AAF4968
:1048E000088603F0C0F920790021FFF751FF00BFCF
:1048F000ACE710B50446A9488089A0B1207AE179D7
:1049000040EA0120A5490880607A4880084640882E
:10491000022801D1A07AC88103F070FB2079002120
:10492000FFF736FF03E020790821FFF731FF10BDC4
:1049300010B58AB00446202102A803F0E0FE002052
:104940000190FF208DF808008DF809009348008839
:1049500000128DF80A00914800788DF80B0020793C
:1049600040F080008DF80C0000208DF80D00032031
:104970008DF80E0000208DF80F008DF81000E07902
:10498000864988810846007B8DF811000846017B26
:10499000092002F0FDFC8148808908B9FEF760FC1F
:1049A0009DF80E00C11D01AA02A8FEF77DFD9DF82D
:1049B00004109DF80E00C01D02AA11549DF80510A8
:1049C0009DF80E00083011549DF80E0000F1090109
:1049D00002A8FEF743FD0AB010BD2DE9F04FFFB06D
:1049E00004464FF00008002700250026A946AA46E5
:1049F000C82101A803F083FEFF208DF8D0008DF8B8
:104A0000D1006648008800128DF8D2006348007813
:104A10008DF8D300207940F080008DF8D40000207C
:104A20008DF8D50002208DF8D60000208DF8D70033
:104A30008DF8D800E07901287ED0E07900287DD17A
:104A4000A07A0006E17A40EA0140217B40EA012099
:104A5000617B40EA0108607A217A40EA0127C82098
:104A600097FBF0F01FFA80FAC82097FBF0F100FBEB
:104A7000117018B10AF101001FFA80FA5AE00026FD
:104A800005E0002001A921F81600701C86B2642EF2
:104A9000F7DBC82F04DDC825A7F1C80087B201E005
:104AA0003D460027AB4605EBDB70C0F34F0201A982
:104AB000404603F01BFA284605EBD07108EB61086D
:104AC000A81CC0B28DF8D60009F101001FFA80F9C8
:104AD00009F0FF008DF8D9000AF0FF008DF8DA0028
:104AE00000260FE001A830F81600011206F10B00B5
:104AF00034AA115401A810F8161006F10C00115434
:104B0000701C86B2AE42EDDB05F1090081B233AA1A
:104B100034A8FEF7C9FC9DF8CC1034AA05F10900B1
:104B200011549DF8CD10401C1154401C81B234A882
:104B3000FEF794FC002F00E000E0A0D17FB0BDE8BC
:104B4000F08F10B58AB00446FF208DF808008DF86C
:104B500009001248008800128DF80A000F480078FA
:104B60008DF80B00207940F080008DF80C000020BB
:104B70008DF80D0002208DF80E0000208DF80F003A
:104B80008DF81000207A01284ED1E079012813D148
:104B9000A07A617A40EA0120004905E0020900207C
:104BA0000CED00E00000FA054884207BE17A40EA41
:104BB0000120FA49888425E0E07902280CD1A07A06
:104BC000617A40EA0120F549C884207BE17A40EA15
:104BD0000120F249088515E0E07903280CD1A07A7C
:104BE000617A40EA0120ED494885207BE17A40EA7C
:104BF0000120EA49888505E020790221FFF7C8FDF8
:104C00000AB010BD01AA092102A8FEF74DFC9DF8CB
:104C100004008DF811009DF805008DF812000B219D
:104C200002A8FEF71BFC5AE0207A002857D19DF815
:104C30000E00001DC0B28DF80E00E079012810D1E1
:104C4000D648408C00126072D44890F82200A072BE
:104C5000D248808C0012E072D04890F82400207373
:104C60002CE0E079022810D1CC48C08C0012607290
:104C7000CA4890F82600A072C848008D0012E07261
:104C8000C64890F82800207318E0E079032810D176
:104C9000C248408D00126072C04890F82A00A0728D
:104CA000BE48808D0012E072BC4890F82C00207342
:104CB00004E020790221FFF76BFDA1E701AA0D2195
:104CC00002A8FEF7F1FB9DF804008DF815009DF891
:104CD00005008DF816000F2102A8FEF7BFFB00BFEC
:104CE0008EE770B505460C46AC48408803280ED1C7
:104CF000012D09D1012C02D1FEF77EFC56E0022CD9
:104D000054D1FEF759FC51E0FEF776FC4EE0A34883
:104D10004088022811D1012D0CD1012C02D1FEF7BF
:104D200009FD43E0022C02D1FEF7C3FC3EE0FEF792
:104D300082FC3BE0FEF73EFD38E0984840880428BE
:104D400011D1012D0CD1012C02D1FEF70EFC2DE06A
:104D5000022C02D1FEF7E1FB28E0FEF7DEFB25E0A6
:104D6000FEF703FC22E08D484088052811D1012D73
:104D70000CD1012C02D1FEF71FFC17E0022C02D14E
:104D8000FEF73AFC12E0FEF717FC0FE0FEF734FCEA
:104D90000CE082484088062808D1284603F0F9FB39
:104DA0006420FDF7D4FE204603F041FC70BD10B531
:104DB0008AB00446FF208DF808008DF80900774876
:104DC000008800128DF80A00744800788DF80B00F6
:104DD000207940F080008DF80C0000208DF80D0047
:104DE00002208DF80E0000208DF80F008DF81000C5
:104DF000E0796A494988884205D020790921FFF77E
:104E0000C7FC0AB010BD617A207AFFF76AFF01AAD9
:104E1000092102A8FEF748FB9DF804008DF8110057
:104E20009DF805008DF812000B2102A8FEF716FB75
:104E300000BFE6E710B58AB00446FF208DF80800F1
:104E40008DF809005548008800128DF80A00534873
:104E500000788DF80B00207940F080008DF80C0070
:104E600000208DF80D000C208DF80E0000208DF82C
:104E70000F008DF8100049484088022806D14748A5
:104E8000408BF0B101208DF811001AE043484088B2
:104E9000032806D14148808B98B101208DF811007C
:104EA0000FE03E48408804280BD13C48C08B10B12D
:104EB00001208DF811003948008C10B101208DF8C7
:104EC00011003648007E8DF8120001AA0B2102A8BD
:104ED000FEF7EAFA9DF804008DF813009DF805002E
:104EE0008DF814000D2102A8FEF7B8FA0AB010BD23
:104EF00010B58AB00446FF208DF808008DF809002F
:104F00002648008800128DF80A00244800788DF8A1
:104F10000B00207940F080008DF80C0000208DF807
:104F20000D000E208DF80E0000208DF80F008DF87A
:104F300010001A4880788DF811001848007D8DF80F
:104F4000120017480068000E8DF81300144800681E
:104F5000000C8DF8140012480088000A8DF8150026
:104F60000F4800788DF816000C48807D8DF81700EA
:104F70000A484088022815D1084800798DF81800A1
:104F80000648807A8DF819000448807B8DF81B0054
:104F90000248807E8DF81C0050E0000002090020CD
:104FA0003C0000206E484088032812D16C4880796C
:104FB0008DF8180000208DF819006A4800788DF8E7
:104FC0001A006748007F8DF81C0001208DF81C0036
:104FD00034E06348408805280FD1614880798DF816
:104FE000180000208DF819005E4800788DF81A002E
:104FF0005B48007F8DF81C0020E059484088062857
:105000000DD15748C08800128DF818005448807997
:105010008DF819005248007E8DF81C000EE05048B3
:10502000408804280AD14E48007A8DF818000020E4
:105030008DF819004A48807F8DF81C0001AA1521BF
:1050400002A8FEF731FA9DF804008DF81D009DF8C6
:1050500005008DF81E00172102A8FEF7FFF90AB01F
:1050600010BDF8B50446002500262078FF2807D19A
:105070006078FF2804D1A079617940EA012500E039
:10508000F8BDE81D81B26A462046FEF70DFA9DF88C
:105090000010E81D205C814206D19DF8011005F149
:1050A0000800205C814200D0EAE7E078A17840EA7D
:1050B00001262B480088B04205D02079062839DB2C
:1050C0002079082836DC00202749088020790A2822
:1050D0002AD2DFE800F02905090D1115191D212537
:1050E0002046FFF705FF24E02046FFF7A3FE20E05F
:1050F0002046FFF75CFE1CE02046FFF722FD18E08B
:105100002046FFF76AFC14E02046FFF711FC10E090
:105110002046FFF7EEFB0CE02046FFF78EFB08E091
:105120002046FFF76AFB04E020790521FFF730FBFA
:1051300000BF00E0A4E700BFA2E70C480078401CD5
:105140000A49087008460078642807DB08480068A8
:10515000401C07490860002004490870704700009F
:10516000020900202600002024000020400000202A
:105170003C0000200CB50020019000906C480068B5
:1051800040F480306A49086000BF6948006800F454
:10519000003000900198401C0190009818B90198C7
:1051A000B0F5A06FF1D16248006800F4003010B192
:1051B0000120009001E0002000900098012843D1D8
:1051C0005C48006840F010005A49086008460068D2
:1051D00020F0030008600846006840F00200086004
:1051E000534840685249486008464068486008464D
:1051F000406840F4806048600846406820F47C10B5
:1052000048600846406840F4E81048600846006876
:1052100040F08070086000BF4548006800F00070F2
:105220000028F9D04248406820F003004049486017
:105230000846406840F00200486000BF3C484068B3
:1052400000F00C000828F9D10CBD10B5FFF792FF53
:1052500010BD10B53648006840F0010034490860C0
:1052600008464068344908403149486008460068AB
:10527000324908402E4908600846006820F4802022
:1052800008600846406820F4FE0048604FF41F00A4
:105290008860FFF7DAFF4FF000602949086010BD11
:1052A00010B5002100200022214B5B6803F00C01A7
:1052B00021B1042906D0082928D107E0214B224C2E
:1052C000236027E01F4B204C236023E0184B5B68D2
:1052D00003F47010164B5B6803F48032022303EB77
:1052E000904022B9194B4343174C23600DE0104BFB
:1052F0005B6803F4003323B1144B4343124C236027
:1053000003E0104B4343104C236003E00D4B0E4C65
:10531000236000BF00BF064B5B68C3F303130C4C54
:10532000E15C094B1B68CB40074C236010BD0000BB
:1053300000100240002002400000FFF8FFFFF6FED0
:1053400008ED00E000127A004400002000093D0052
:10535000480000200948804709480047FEE7FEE76B
:10536000FEE7FEE7FEE7FEE7FEE7FEE7FEE7FEE715
:1053700004480549054A064B70470000535200088F
:10538000ED280008C00A0020C0100020C00C00203A
:10539000C00C002010B50446CC48844208D101213D
:1053A000042000F031FD0021042000F02DFD46E036
:1053B000C748844208D10121082000F025FD0021C2
:1053C000082000F021FD3AE0C248844208D10121C2
:1053D000102000F019FD0021102000F015FD2EE036
:1053E000BD48844208D10121202000F00DFD00219C
:1053F000202000F009FD22E0B848844208D10121B4
:10540000402000F001FD0021402000F0FDFC16E0EE
:10541000B348844208D10121802000F0F5FC00212E
:10542000802000F0F1FC0AE0AE48844207D101215F
:10543000801500F0E9FC0021A01500F0E5FC10BD8E
:1054400010B50121084600F0DFFC0021012000F02A
:10545000DBFC10BD2DE9F0410246002500260020AE
:1054600000230024002791F803C00CF00F0591F8E9
:1054700003C00CF0100CBCF1000F03D091F802C077
:105480004CEA050591F800C0BCF1000F31D014685A
:1054900000202BE04FF0010C0CFA00F3B1F800C033
:1054A0000CEA03069E4220D183004FF00F0C0CFA49
:1054B00003F7BC4305FA03FC4CEA040491F803C06B
:1054C000BCF1280F06D14FF0010C0CFA00FCC2F819
:1054D00014C00AE091F803C0BCF1480F05D14FF0A9
:1054E000010C0CFA00FCC2F810C0401C0828D1D3F3
:1054F0001460B1F800C0BCF1FF0F34DD5468002027
:105500002EE000F1080C4FF0010808FA0CF3B1F896
:1055100000C00CEA03069E4221D183004FF00F0C1D
:105520000CFA03F7BC4305FA03FC4CEA040491F8B7
:1055300003C0BCF1280F05D100F1080C08FA0CF8E3
:10554000C2F8148091F803C0BCF1480F07D100F1F4
:10555000080C4FF0010808FA0CF8C2F81080401C43
:105560000828CED35460BDE8F0814FF6FF7101806A
:10557000022181700421C1707047024600209368A7
:105580000B400BB1012000E0002070470146886805
:1055900080B2704702460020D3680B400BB1012057
:1055A00000E0002070470146C86880B27047016182
:1055B0007047416170470AB1016100E04161704785
:1055C000C16070474FF480320A4382618161826119
:1055D00082698269704702460020434B18684FF683
:1055E0008073184040EA021008433F4B1860704730
:1055F0003E49C8617047F0B50A46002300240021E7
:10560000002500F00046B6F1004F02D1364EF16998
:1056100001E0354E7168C0F3034583B200F44016D3
:10562000B6F5401F08D121F070612F4E766826F044
:1056300070662D4F7E6012E000F48016B6F5801F74
:1056400006D1032606FA05F4A14341F0706106E095
:10565000460D360103FA06F6B14341F0706122B1FE
:10566000460D360103FA06F6314300F00046B6F166
:10567000004F02D11C4EF16101E01B4E7160F0BD84
:1056800030B500228B071C0F0F2303FA04F2164BD0
:1056900008338C1053F824309343134C08348D1086
:1056A00044F8253023468C1053F824308C07240FFF
:1056B00000FA04F423430C4C08348D1044F82530D0
:1056C00030BD0A49DC310860704700000008014025
:1056D000000C01400010014000140140001801407E
:1056E000001C014000200140000001400000204259
:1056F00010B50446FB48844209D10121880300F01B
:1057000083FB00214FF4804000F07EFB32E0F6483E
:10571000844209D10121480400F083FB00214FF4A9
:10572000003000F07EFB25E0F048844209D10121E1
:10573000880400F076FB00214FF4802000F071FB1C
:1057400018E0EB48844209D10121C80400F069FB4C
:1057500000214FF4002000F064FB0BE0E548844298
:1057600008D10121080500F05CFB00214FF48010F6
:1057700000F057FB10BD2DE9F04786B005460E46F8
:105780000024A24600BFA1460027B08900B100BF97
:105790002F462C8A4CF6FF700440F08804432C827C
:1057A000AC894EF6F3100440B08831890843718902
:1057B00008430443AC81AC8A4FF6FF400440B089F3
:1057C0000443AC8201A800F098FAC648874202D18F
:1057D000DDF810A001E0DDF80CA0A88900F400407D
:1057E00040B10AEBCA0000EB0A1031684900B0FB77
:1057F000F1F807E00AEBCA0000EB0A1031688900F3
:10580000B0FBF1F86420B8FBF0F00401200964213A
:1058100001FB1089A88900F4004040B1322000EB60
:10582000C900B0FBF1F000F00700044308E03220AB
:1058300000EB09106421B0FBF1F000F00F0004430D
:105840002C8106B0BDE8F0874FF4165101600021AD
:105850008180C18001810C214181002181817047BB
:1058600010B502460020108A4FF2FF0318400B8843
:105870004C8823438C882343CC88234318431082CD
:1058800010BD0021018041808180C180704721B11D
:10589000828942F40052828104E082894DF6FF73CE
:1058A0001A4082817047F0B5034600240026002587
:1058B000002040F66A17B94200D100BF1846C1F374
:1058C000421401F01F06012707FA06F5012C01D149
:1058D0000C3004E0022C01D1103000E014301AB179
:1058E00007682F43076002E00768AF430760F0BD19
:1058F0001AB1838A0B43838202E0838A8B438382BB
:105900007047028A4FF6F0731A400282028A0A43F5
:105910000282704782894FF2FF731A408281828926
:105920000A438281704721B1828942F0020282815A
:1059300004E082894FF6FD731A4082817047028A23
:105940004FF6DF731A400282028A0A4302827047CE
:1059500021B1028A42F48042028204E0028A4BF6BC
:10596000FF731A4002827047C1F3080282807047B9
:1059700001468888C0F308007047818941F0010121
:1059800081817047028BD2B20283028B42EA0122EC
:1059900002837047028B02F47F420283028B0A4328
:1059A0000283704721B1828A42F02002828204E0A1
:1059B000828A4FF6DF731A408282704721B1828A51
:1059C00042F01002828204E0828A4FF6EF731A409E
:1059D0008282704721B1828A42F00802828204E00A
:1059E000828A4FF6F7731A408282704721B182890A
:1059F00042F40042828103E08289C2F30E02828176
:105A0000704721B1828A42F40062828204E0828A75
:105A10004FF2FF731A4082827047828A4FF6FB73FF
:105A20001A408282828A0A438282704721B1828A26
:105A300042F00202828204E0828A4FF6FD731A402D
:105A40008282704702460020B1F5007F00D100BF7E
:105A500013880B400BB1012000E00020704701F4D7
:105A60000072B2F5007F00D100BFCA4302807047C8
:105A700070B50246002400230025002040F66A1677
:105A8000B14200D100BFC1F3421501F01F0301264E
:105A900006FA03F3012D02D19689334006E0022D68
:105AA00002D1168A334001E0968A33400C12012657
:105AB00006FA04F41688344013B10CB1012000E05A
:105AC000002070BD10B50022002340F66A14A142E8
:105AD00000D100BF0A1201249440A3B2DC43048029
:105AE00010BD000000380140004400400048004064
:105AF000004C004000500040DF48006840F00100CA
:105B0000DD49086008464068DC490840DA494860D9
:105B100008460068DA490840D74908600846006826
:105B200020F4802008600846406820F4FE004860A9
:105B30004FF41F0088607047CF49096821F4803115
:105B4000CD4A11601146096821F480211160B0F539
:105B5000803F03D0B0F5802F0ED106E0C64909681A
:105B600041F48031C44A116007E0C349096841F437
:105B7000A021C14A116000E000BF00BF704710B50E
:105B800001460022002300204A11012A02D1BA4C0A
:105B9000236806E0022A02D1B74C236A01E0B64C22
:105BA000636A01F01F02012494401C400CB10120E3
:105BB00000E0002010BD38B5002000900024002532
:105BC00000BF3120FFF7DBFF05460098401C009026
:105BD0000098B0F5A06F01D0002DF2D03120FFF772
:105BE000CEFF08B1012400E00024204638BD014664
:105BF0000020A14A106820F0F80040EAC1001060BF
:105C00007047A04908607047024600209A4B5868C8
:105C100020F47C1042EA01031843974B5860704708
:105C200098490866704701460020934A506820F062
:105C300003000843506070478F48406800F00C0034
:105C40007047014600208C4A506820F0F00008435D
:105C50005060704701460020874A506820F4E06099
:105C600008435060704701460020834A506820F482
:105C7000605040EAC1005060704729B17E4A527AB4
:105C800002437D4B5A7204E07B4A527A82437A4B3C
:105C90005A7270477B49D83108607047014600202E
:105CA000754A506820F44040084350607047002116
:105CB000714A20321170704A82F82010012802D0F7
:105CC00004280AD104E001216B4A2032117005E05A
:105CD0000521694A2032117000E000BF00BF704703
:105CE0006949086070476449096A0143624A116260
:105CF0007047654944390860704730B5002100227B
:105D0000002400235C4D6D6805F00C0121B10429CD
:105D100005D0082923D105E05C4D056022E05B4DEC
:105D200005601FE0544D6D6805F47012524D6D68AA
:105D300005F48034022505EB92421CB9544D5543BD
:105D400005600BE04C4D6D6805F400351DB1504DFC
:105D50005543056002E04D4D5543056002E04B4D53
:105D6000056000BF00BF444D6D6805F0F0010909F2
:105D7000484D6B5C0568DD4045603F4D6D6805F43E
:105D8000E061090A434D6B5C4568DD4085603A4D32
:105D90006D6805F46051C90A3E4D6B5C4568DD4095
:105DA000C560354D6D6805F44041890B3A4D6B5C1B
:105DB000C568B5FBF3F5056130BD29B12E4A5269BE
:105DC00002432D4B5A6104E02B4A526982432A4B0D
:105DD0005A61704729B1284A92690243264B9A6159
:105DE00004E0254A92698243234B9A61704729B1A6
:105DF000214AD2690243204BDA6104E01E4AD2698B
:105E000082431D4BDA61704729B11B4AD2680243B5
:105E1000194BDA6004E0184AD2688243164BDA6004
:105E2000704729B1144A12690243134B1A6104E006
:105E3000114A12698243104B1A6170471249403966
:105E4000086070470F49C86470470B49C8717047B4
:105E50000948406A40F0807007494862704701462F
:105E60000020054A92680A400AB1012000E00020A3
:105E70007047014988727047001002400000FFF827
:105E8000FFFFF6FE000042428004424200127A0008
:105E900000093D00580000206800002031490143FE
:105EA000314A1160704770B5002100230F22C47879
:105EB00004B32D4C246804F4E064C4F5E064210AC2
:105EC000C1F10403CA40447804FA03F18478144011
:105ED00021430901254C0678A155047804F01F05DB
:105EE0000124AC4005786D11AD0005F1E025C5F841
:105EF000004109E0047804F01F050124AC401C4D6A
:105F00000678761145F8264070BD1A4A0A400243C9
:105F1000154B1B1F1A60704739B1134A121D1268C6
:105F20000243114B1B1D1A6006E00F4A121D126836
:105F300082430D4B1B1D1A607047042808D14FF097
:105F4000E021096941F004014FF0E022116107E00E
:105F50004FF0E021096921F004014FF0E0221161C6
:105F6000704700000000FA050CED00E000E400E0DE
:105F700080E100E080FFFF1F10B50446FE48844228
:105F800008D10121C014FFF73FFF0021E014FFF703
:105F90003BFFC4E0B4F1804F08D101210846FFF770
:105FA00040FF00210120FFF73CFFB8E0F3488442A6
:105FB00008D101210220FFF734FF00210220FFF762
:105FC00030FFACE0EE48844208D101210420FFF705
:105FD00028FF00210420FFF724FFA0E0E9488442C5
:105FE00008D101210820FFF71CFF00210820FFF73E
:105FF00018FF94E0E448844208D101211020FFF703
:1060000010FF00211020FFF70CFF88E0DF488442DA
:1060100008D101212020FFF704FF00212020FFF7F5
:1060200000FF7CE0DA48844208D101214014FFF7E8
:10603000EBFE00216014FFF7E7FE70E0D5488442D4
:1060400009D10121C804FFF7DFFE00214FF4002031
:10605000FFF7DAFE63E0D048844209D10121080548
:10606000FFF7D2FE00214FF48010FFF7CDFE56E07F
:10607000CA48844209D101214805FFF7C5FE002125
:106080004FF40010FFF7C0FE49E0C548844208D134
:1060900001214020FFF7C5FE00214020FFF7C1FE8F
:1060A0003DE0C048844208D101218020FFF7B9FEBD
:1060B00000218020FFF7B5FE31E0BB48844208D1C3
:1060C00001218015FFF7ADFE0021A015FFF7A9FE05
:1060D00025E0B648844209D101210804FFF794FE67
:1060E00000214FF48030FFF78FFE18E0B048844263
:1060F00009D101214804FFF787FE00214FF4003049
:10610000FFF782FE0BE0AB48844208D101218804EE
:10611000FFF77AFE00214FF48020FFF775FE10BDD7
:1061200000220288944B98420ED0994B98420BD093
:10613000B0F1804F08D0914B984205D0904B9842D7
:1061400002D0904B984204D14FF68F731A404B887F
:106150001A438D4B984207D08C4B984204D04FF68F
:10616000FF431A40CB881A4302808B8883850B88B3
:106170000385814B98420BD0854B984208D08B4BBE
:10618000984205D08A4B984202D08A4B984201D15E
:106190000B7A038601238382704770B500240022A6
:1061A0000023058C4FF6FE7635400584028C8388EB
:1061B000048B4FF68F752C40B51E2C400D882C4358
:1061C000751E2A400D892A434D882A436A4DA842EC
:1061D0000BD06F4DA84208D0744DA84205D0744D25
:1061E000A84202D0734DA84213D14FF6F7752A404A
:1061F0004D892A434FF6FB752A408D882A434FF676
:10620000FF652B404FF6FF552B408D892B43CD89E1
:106210002B4383800483CD888586028470BD70B54E
:10622000002400220023058C4FF6EF7635400584CC
:10623000028C8388048B48F6FF752C404FF6FF458F
:106240002C400D884FF6FF7606EA05252C434FF6C5
:10625000DF752A400D8906EA05152A434D8806EAAE
:1062600005152A43444DA84202D0494DA8421DD1EC
:106270004FF67F752A404D894FF6FF7606EA0515E1
:106280002A434FF6BF752A408D8806EA05152A4332
:106290004FF6FF352B404FF2FF752B408D8906EAF4
:1062A00085052B43CD8906EA85052B43838004832E
:1062B000CD880587028470BD70B5002400220023BC
:1062C000058C4FF6FF6635400584028C8388848BED
:1062D0004FF68F752C404FF6FC752C400D882C43E3
:1062E0004FF6FF552A400D894FF6FF7606EA052541
:1062F0002A434D8806EA05252A431F4DA84202D0AD
:10630000234DA8421DD14FF2FF752A404D894FF60B
:10631000FF7606EA05252A434FF6FF352A408D8889
:1063200006EA05252A434EF6FF752B404DF6FF750C
:106330002B408D8906EA05152B43CD8906EA051504
:106340002B4383808483CD888587028470BD70B59C
:10635000002200230024058C4EF6FF76354005848C
:10636000038C8488828B48F6FF752A404FF6FF45E0
:106370002A400D8820E00000002C0140000400406D
:1063800000080040000C00400010004000140040D5
:1063900000340140004C01400050014000540140D5
:1063A00000180040001C0040002000400040014058
:1063B00000440140004801404FF6FF7606EA0525FB
:1063C0002A434DF6FF752B400D8906EA05352B4310
:1063D0004D8806EA05352B43FA4DA84202D0FA4D06
:1063E000A84208D14BF6FF752C408D894FF6FF76F9
:1063F00006EA85152C4384808283CD88A0F840501E
:10640000038470BD828B4FF2FF331A408283828BEC
:106410004FF6FF7303EA01231A4382837047F0B5F6
:106420000C461546002200210026078C4EF6FF7C04
:1064300007EA0C070784828B018C4FF6FF7707EA87
:10644000043640F6FF473A404FF6FF7707EA052744
:106450003A434FF6FF7707EA03373A43D94FB8423A
:106460000ED0D94FB8420BD0B0F1804F08D0D74FE3
:10647000B84205D0D64FB84202D0D64FB84206D166
:106480004DF6FF77394046F48057394305E047F62B
:10649000FF57394044F48057394382830184F0BD6B
:1064A000828B4FF6F3731A408283828B0A43828376
:1064B0007047F0B50C461546002200210026078CD7
:1064C0004FF6FF6C07EA0C070784828B018C4FF6AE
:1064D000FF7707EA04264FF60C773A404FF6FF772E
:1064E00007EA03172F433A43B64FB8420ED0B64FD0
:1064F000B8420BD0B0F1804F08D0B44FB84205D0AD
:10650000B34FB84202D0B34FB84206D14FF6FF574F
:10651000394046F48077394305E04FF2FF57394060
:1065200044F48077394382830184F0BD028B4FF2BB
:10653000FF331A400283028B4FF6FF7303EA0123F5
:106540001A4302837047F0B50C461546002200211D
:106550000026078C4FF6EF7C07EA0C070784028BB6
:10656000018C4FF6FF7707EA041640F6FF473A40E2
:106570004FF6FF7707EA03373A434FF6FF7707EA0C
:1065800005273A438F4FB8420ED08F4FB8420BD0F9
:10659000B0F1804F08D08D4FB84205D08C4FB84233
:1065A00002D08C4FB84206D14FF6DF77394046F023
:1065B0001007394305E04FF65F77394044F0100784
:1065C000394302830184F0BD028B4FF6F3731A4006
:1065D0000283028B0A4302837047F0B50C461546CE
:1065E00000220021068C4FF6FE773E400684028B87
:1065F000018C4FF60C7632407E1C06EA03162E43C1
:106600003243704EB0420ED06F4EB0420BD0B0F15C
:10661000804F08D06D4EB04205D06D4EB04202D0D2
:106620006C4EB04206D14FF6FD76314044F0010683
:10663000314305E04FF6F576314044F00106314331
:1066400002830184F0BD70B505460C465D48854265
:106650000ED05D4885420BD0B5F1804F08D05B4825
:10666000854205D05A48854202D05A48854200D119
:1066700000E000BF208850B92389A288618828469D
:10668000FFF7ABFFE1882846FFF79EFF25E0208853
:1066900004280AD12389A28861882846FFF753FF7E
:1066A000E1882846FFF742FF17E0208808280AD132
:1066B0002389A28861882846FFF7FBFEE1882846E7
:1066C000FFF7EEFE09E02389A28861882846FFF7DC
:1066D000A6FEE1882846FFF795FE70BD2DE9F04142
:1066E00005460C4600260127608808B9022600E00E
:1066F0000026A088012801D1022700E00127208878
:10670000A0B92389A28861882846FFF766FFE1883F
:106710002846FFF759FF23893A4631462846FFF7B6
:1067200012FFE1882846FFF701FF13E02389A288C2
:1067300061882846FFF707FFE1882846FFF7F6FE45
:1067400023893A4631462846FFF747FFE188284625
:10675000FFF73AFFBDE8F0810A884B881A438B881F
:106760001A43CB881A430B891A434B891A438B89E6
:106770001A43A0F8442070474FF6FF718180002132
:106780000180C180418001727047002101804180F9
:106790008180C180018141818181C1817047002157
:1067A00001804180012181800021C18001817047E9
:1067B0000021018041808180C180018141818181EE
:1067C00070470000002C01400034014000040040EC
:1067D00000080040000C004021B1028842F0010294
:1067E000028004E002884FF6FE731A400280704770
:1067F00031B1B0F8442042F40042A0F8442005E052
:10680000B0F84420C2F30E02A0F8442070471AB139
:1068100083890B43838102E083898B4383817047A3
:106820008182704741EA0203A0F8483070471AB1EC
:1068300083890B43838102E083898B438381704783
:1068400001894FF6F8721140018170470A46002114
:1068500001894FF68F73194011430181704730B59C
:1068600004460D4629462046FFF7F0FF208940F0F8
:106870000700208130BD2DE9F04104460D46164643
:106880001F46602D06D13B46012231462046FFF7C8
:106890005AFE05E03B46012231462046FFF79DFEA9
:1068A00029462046FFF7D2FF208940F007002081CB
:1068B000BDE8F08130B50C4600210189C9B24FF620
:1068C000FF7505EA0325154325432943018130BDA2
:1068D0002DE9F04105460E461746984600244346EA
:1068E0003A4631462846FFF7E5FF2C894FF6F87007
:1068F000044044F007044FF68F70044044F07004E5
:106900002C81BDE8F081F0B504460D4616461F46C1
:106910003B46324629462046FFF7CCFF208940F40B
:1069200080402081F0BD0185828270470A460021A7
:1069300001884FF68F731940114301807047F0B5FD
:106940000C4615461E460021002200230189028BB9
:10695000038C4FF6F877394021434FF6FC473A4015
:1069600040F201173A434FF6DD773B404FF6FF7791
:1069700007EA06172F433B43018102830384F0BDDE
:106980000A460021018B4FF68F7319401143018392
:1069900070470A460021018B48F6FF7319404FF6F5
:1069A000FF7303EA02231943018370470A4600215B
:1069B000818B4FF68F7319401143818370470A46CC
:1069C0000021818B48F6FF7319404FF6FF7303EAED
:1069D000022319438183704721B1028842F080026B
:1069E000028004E002884FF67F731A4002807047ED
:1069F00021B1828842F00402828004E082884FF64E
:106A0000FB731A408280704721B1828842F00802ED
:106A1000828004E082884FF6F7731A4082807047C4
:106A200021B1828842F00102828004E082884FF620
:106A3000FE731A40828070470A460021018B4FF690
:106A4000F77319401143018370470A460021018BF7
:106A50004FF2FF7319404FF6FF7303EA0223194305
:106A6000018370470A460021818B4FF6F773194066
:106A70001143818370470A460021818B4FF2FF73D7
:106A800019404FF6FF7303EA0223194381837047CD
:106A90000A460021018B4FF6FB7319401143018315
:106AA00070470A460021018B4FF6FF3319404FF61D
:106AB000FF7303EA02231943018370470A4600214A
:106AC000818B4FF6FB7319401143818370470A464F
:106AD0000021818B4FF6FF3319404FF6FF7303EA15
:106AE00002231943818370470A460021018B4FF628
:106AF0007F7319401143018370470A460021018BBF
:106B0000C1F30E014FF6FF7303EA02231943018319
:106B100070470A460021818B4FF67F73194011435D
:106B2000818370470A460021818BC1F30E014FF625
:106B3000FF7303EA02231943818370470A46002149
:106B4000018C4FF6FD7319401143018470470A46CA
:106B50000021018C4FF6F7731940114301847047EF
:106B60000A460021018C4FF6DF7319404FF6FF7380
:106B700003EA02131943018470470A460021018C7D
:106B80004FF67F7319404FF6FF7303EA0213194360
:106B9000018470470A460021018C4FF6FF531940CB
:106BA0004FF6FF7303EA02231943018470470A4634
:106BB0000021018C4FF2FF7319404FF6FF7303EA77
:106BC00002231943018470470A460021018C4DF6C7
:106BD000FF7319404FF6FF7303EA02331943018430
:106BE000704730B5002301248C40A3B2048C9C4331
:106BF0000484048C02FA01F5ADB22C43048430BD48
:106C000030B5002304248C40A3B2048C9C4304843C
:106C1000048C02FA01F5ADB22C43048430BD70B58A
:106C20000346002000241846183001258D40ACB2E0
:106C30001D8CA5431D8409B1082909D100EB610011
:106C4000056825F0700505600568154305600EE0D0
:106C50000D1FC5F34E052844056825F4E045056081
:106C600005684FF6FF7606EA02263543056070BDDB
:106C700021B1028842F00202028004E002884FF64D
:106C8000FD731A400280704721B1028842F004026D
:106C9000028004E002884FF6FB731A4002807047BE
:106CA00021B1828842F08002828004E082884FF61F
:106CB0007F731A408280704702884FF6F7731A403C
:106CC000028002880A430280704782884FF68F73E1
:106CD0001A40828082880A438280704702894FF678
:106CE000F8731A40028102890A43028170470289BF
:106CF0004FF67F731A40028102890A43028170476E
:106D0000818470478185704781867047018770470D
:106D100081877047A0F84010704702884FF6FF4304
:106D20001A40028002880A43028070470146888E1A
:106D300070470146088F70470146888F70470146AB
:106D4000B1F8400070470146888C70470146088DB5
:106D5000704702460020138A0B400BB1012000E06F
:106D600000207047CA430282704730B502460020B7
:106D700000230024158A05EA0103958905EA010428
:106D800013B10CB1012000E0002030BDCA430282E3
:106D90007047000001460020FE4A106800F03800ED
:106DA000084310607047FB49096821F00801F94A5F
:106DB000116011460968014311607047F54909687F
:106DC00021F01001F34A1160114609680143116076
:106DD0007047F148EF494860F04848607047EE4816
:106DE000EC494860ED4848607047EA48006940F067
:106DF0008000E84908617047E648006940F080007B
:106E0000E449086170470420E249C96801F00101C2
:106E100009B101200EE0DF49C96801F0040109B1A0
:106E2000022007E0DB49C96801F0100109B1032025
:106E300000E00420704700B502460423FFF7E3FF9B
:106E4000034603E0FFF7DFFF0346521E012B01D18B
:106E5000002AF7D102B90523184600BD30B5044613
:106E600004254FF43020FFF7E6FF0546042D17D127
:106E7000C848006940F00200C649086108464461FC
:106E8000006940F0400008614FF43020FFF7D3FF65
:106E90000546C048006941F6FD710840BD490861DA
:106EA000284630BD10B504244FF43020FFF7C3FF4F
:106EB0000446042C16D1B748006940F00400B549D7
:106EC00008610846006940F0400008614FF4302036
:106ED000FFF7B1FF0446AF48006941F6FB71084077
:106EE000AC490861204610BD00B502460423FFF7F7
:106EF0008AFF034603E0FFF786FF0346521E012B7D
:106F000001D1002AF7D102B90523184600BD10B5FA
:106F100004244FF43020FFF7E7FF0446042C16D179
:106F20009C48006940F004009A49086108460069DD
:106F300040F0400008614FF43020FFF7D5FF0446D1
:106F40009448006941F6FB71084092490861204667
:106F500010BD00208F49C96901F0020109B101206B
:106F600000E00020704730B5A5250424FFF7F1FFAD
:106F700000B100254FF43020FFF75DFF0446042CDC
:106F80003AD185488349886084488860084600690A
:106F900040F0200008610846006940F040000861A8
:106FA0004FF43020FFF747FF0446042C1BD17948EB
:106FB000006941F6DF7108407649086108460069BA
:106FC00040F01000086176480580E002FFF733FFCB
:106FD0000446052C10D06F48006941F6EF71084057
:106FE0006C49086108E0052C06D06A48006941F642
:106FF000EF71084067490861204630BD78B5064604
:107000000C46042500200090E802FFF714FF054617
:10701000042D24D15F48006940F001005D490861FA
:107020003480E802FFF707FF0546042D10D1B01C9D
:107030000090200C00990880E802FFF7FCFE05464E
:107040005448006941F6FE7108405249086106E063
:107050005048006941F6FE7108404E4908612846D3
:1070600078BD70B504460D460426F002FFF7E3FE36
:107070000646042E11D14748006940F001004549F9
:1070800008612580F002FFF7D6FE064641480069F8
:1070900041F6FE7108403F490861304670BD70B549
:1070A00005460E460424E002FFF7C5FE0446042C04
:1070B00017D13948374988603848886008460069E0
:1070C00040F0100008612E80E002FFF7B4FE044695
:1070D000052C06D02F48006941F6EF7108402D4974
:1070E0000861204670BD2DE9F04304464FF6FF7657
:1070F0003746B046B1460425E443E6B2C4F3072759
:10710000C4F307484FEA1469E802FFF794FE054606
:10711000042D49D120481F498860204888600846CE
:10712000006940F010000861FF2E06D01C480830AE
:107130000680E802FFF77FFE0546042D08D1FF2FE9
:1071400006D017480A300780E802FFF774FE0546AC
:10715000042D0AD1B8F1FF0F07D011480C30A0F868
:107160000080E802FFF767FE0546042D0AD1B9F159
:10717000FF0F07D00A480E30A0F80090E802FFF792
:107180005AFE0546052D0FD00248006941F6EF7101
:10719000084007E00020024023016745AB89EFCD9E
:1071A00000F8FF1F664908612846BDE8F08330B546
:1071B000054604244FF43020FFF73DFE0446042C1E
:1071C00041D160485E4988605F4888600846006930
:1071D00040F0200008610846006940F04000086166
:1071E0004FF43020FFF727FE0446042C22D15448E8
:1071F000006941F6DF71084051490861084600699D
:1072000040F0100008611DB100205049088002E0E4
:10721000A5204E4908804FF43020FFF70CFE0446AD
:10722000052C10D04648006941F6EF7108404449EA
:10723000086108E0052C06D04148006941F6DF717D
:1072400008403F490861204630BDF0B505460E466E
:10725000174604243B483A4988603B488860E0026E
:10726000FFF7E9FD0446042C19D13548006940F0C8
:1072700010003349086147F0F80030432843334990
:10728000891C0880E002FFF7D6FD0446052C06D0D5
:107290002B48006941F6EF710840294908612046F2
:1072A000F0BD2748C069800870472548006A7047CC
:1072B00000202349096801F0200109B1012000E004
:1072C0000020704729B11E4A126902431C4B1A6103
:1072D00004E01B4A12698243194B1A617047014648
:1072E0000020012908D1164AD26902F001020AB130
:1072F000012008E0002006E0114AD2680A400AB1E5
:10730000012000E0002070470D49C860704704204C
:107310000B49C96801F0010109B101200EE00849DB
:10732000C96801F0040109B1022007E00449C968F5
:1073300001F0100109B1032000E0042070470000B3
:107340000020024023016745AB89EFCD00F8FF1F05
:107350000E49086070470D49486070470B498860C6
:1073600070474AF6AA200949086070474CF6CC409D
:1073700006490860704701460020044AD2680A4066
:107380000AB1012000E000207047000000300040FA
:10739000024609B9012300E0002318460A2A28D230
:1073A000DFE802F02705080C1013171B1F23304BD2
:1073B00018601FE02E4B1B1D18601BE02C4B083380
:1073C000186017E02B4B186014E02A4B1B1D186047
:1073D00010E0284B1B1F18600CE0264B0833186088
:1073E00008E0234B343B186004E0224B143B186048
:1073F00000E000BF00BF704738B5002401210846F7
:10740000FEF7E8FC01210420FEF7E4FC012108203E
:10741000FEF7E0FC01211848FEF7EDF814208DF886
:10742000030003208DF80200F120ADF8000069464A
:107430001248FEF70FF84EF20100ADF80000694661
:107440000F48FEF707F804208DF80300ADF80000A0
:1074500069460B48FDF7FEFF00BF06E0611CC8B29D
:107460000021FFF795FF601CC4B2092CF6DB38BD84
:10747000B481214294012142000230000008014001
:10748000000C014010B50021FE48FFF7A5F9FE48A9
:10749000006820F0C00084B2FB4804600020FB4973
:1074A000086010BD10B5F848006820F0C00084B234
:1074B00044F08000F44908600121F248FFF78CF99C
:1074C00010BD10B50024F2480088401CF049088027
:1074D000F048008878B908460088B0F5617F09DB7C
:1074E000EC480088401CEB490880FFF7CBFF0020E8
:1074F000E7490880F3E0E7480088012811D1E44813
:107500000088B0F5E17FF5DBFFF7CCFFE1480088AC
:10751000401CE04908800020DF490870DC490880F1
:10752000DDE0DC48008802285DDBDA480088262898
:1075300059DCD9480078002843D0D64A1288D11E99
:10754000CA1701EB5272D210D44B9A5CD14B1B88F4
:10755000D81EC31700EB5373DB10A0EBC303C3F1BA
:1075600007031A4102F00104ACB1C9480088A428FD
:10757000C0DBC8480088262802D0FFF793FF04E04C
:10758000C4480088401CC34908800020C0490880C6
:10759000C1490870A3E0BE4800883628AADBBD4870
:1075A0000088262802D0FFF77DFF04E0B948008854
:1075B000401CB84908800020B5490880B6490870C9
:1075C0008DE0B3480088412894DBFFF75BFFB148AA
:1075D0000088401CAF4908800120AF490870002096
:1075E000AB4908807BE0AB480088272810D1A84829
:1075F000008840F29A71884271DBFFF753FFA5487B
:107600000088401CA34908800020A149088066E04A
:10761000A0480088282862DB9E48008849285EDC54
:107620009D48007888B39B4A1288511FCA1701EB06
:107630005272D210994B9A5C964B1B88581FC317F5
:1076400000EB5373DB10A0EBC303C3F107031A4134
:1076500002F00104D4B18E480088A4283FDB8D4895
:107660000088492802D0FFF71DFF08E000208C4960
:10767000087000218B48FFF7AFF8FFF703FF0020E9
:10768000834908808449087029E017E08048008811
:10769000362824DB7F480088492802D0FFF702FF04
:1076A00006E000207E49087000217E48FFF794F82C
:1076B0000020774908807849087010E074480088F5
:1076C00041280CDBFFF7DEFE72480088401C714940
:1076D000088001207049087000206D49088010BDA5
:1076E00070B58AB00446704890FBF4F0401E85B235
:1076F0000026AFF231206D4908600121C802FEF773
:1077000069FB01210220FEF772FB01210820FEF730
:1077100061FB0220ADF8240010208DF82700032023
:107720008DF8260009A95848FDF794FE0221564815
:10773000FDF73FFFADF81C50ADF818600020ADF824
:107740001E00ADF81A0006A94E48FEF7E9FC7020AD
:10775000ADF808000120ADF80A000220ADF81000D5
:10776000681C032190FBF1F080B2ADF80E0002A975
:107770004448FEF7ECFD08214248FFF77CF9002160
:107780004048FFF729F840F2CF20ADF81C00002058
:10779000ADF81800ADF81E00ADF81A0006A9414872
:1077A000FEF7BEFC19208DF8040000208DF80500BE
:1077B00002208DF8060001208DF8070001A8FEF7D1
:1077C00072FB012211463748FFF721F800213548A6
:1077D000FFF702F80AB070BD31480078704710B565
:1077E00000242B480088401C29490880294800882B
:1077F00018B12848008835280FD125480088B0F5F1
:10780000DC7F09DB23480088401C22490880FFF701
:1078100039FE00201E490880FDE01E48008801282E
:1078200003D01C480088362811D119480088B0F5CB
:10783000DC7FF1DBFFF736FE16480088401C154957
:10784000088000201A49087011490880E3E01148B7
:107850000088022803DB0F480088322807DD0D4826
:10786000008837286FDB0B48008867286BDC1048DE
:107870000078002868D007480088372830DA054AA1
:10788000128817E000040040000C0140848121426E
:107890006E0000207000002079000020F800002019
:1078A0006C000020002C014000A24A04740000205B
:1078B00078000020D11ECA1701EB5272D210B74BCC
:1078C0009A5CB74B1B88D81EC31700EB5373DB10B1
:1078D000A0EBC303C3F107031A4102F0010418E04F
:1078E000AF4A1288A2F13801CA1701EB5272D210C6
:1078F000AA4B9A5CAA4B1B88A3F13800C31700EB74
:107900005373DB10A0EBC303C3F107031A4102F06A
:107910000104D4B1A3480088A4287CDBA0480088D7
:10792000322803D09E480088672804D19C480088EC
:10793000401C9B490880FFF7B5FD0020994908804D
:107940009949087067E02BE018E0964800883628CF
:1079500061DB93480088322803D09148008867286B
:1079600004D18F480088401C8D490880FFF79AFD9C
:1079700000208C4908808C4908704CE089480088B8
:10798000412848DBFFF77EFD85480088401C84497C
:1079900008800120844908700020824908803AE06C
:1079A0007F48008833280ED17E480088362832DB95
:1079B000FFF768FD7A480088401C7949088000205C
:1079C0007849088027E076480088342810D1754827
:1079D000008840F20A2188421DDBFFF763FD7048F2
:1079E0000088401C6E49088000206E49088012E023
:1079F0006B48008868280ED16A48008836280ADB60
:107A0000FFF740FD00206949087000216848FEF733
:107A1000E3FEFFF737FD10BD70B506460D460024A6
:107A200000BF04E0305D5D490855601CC4B2092CFC
:107A3000F8DB00205B49088001205C4908700021C8
:107A40005B48FFF75DF9002055490880012D04D1FE
:107A5000AFF291505749086007E0022D04D1AFF210
:107A600081205449086000E070BD01215048FEF7B4
:107A7000B3FEFFF717FD00BFF6E710B54E484849C3
:107A8000098830F8110060B34B484549098830F83F
:107A900011004FF6FF71884223D042480088401CF5
:107AA0004049088044483E49098830F811003D4962
:107AB000098888421EDC3A49088800EBD0714910D9
:107AC000A0EB410111B9FFF7EDFC01E0FFF7DAFC93
:107AD00033480088401C3249088000203149088022
:107AE00008E000203149087000213148FEF774FE9B
:107AF000FFF7C8FC2A480088B0F5007F08DB0020AB
:107B00002A49087000212A48FEF766FEFFF7BAFCF2
:107B100010BD70B504460025002000F093F900BFA9
:107B200005E00020244921F81500681C85B2B5F550
:107B3000007FF6DB012C02D100F08EFA0FE0022C60
:107B400002D100F091FA0AE0032C02D100F094FA7D
:107B500005E0042C02D100F097FA00E000BF0020FD
:107B60001049088001201149087000211048FFF7D2
:107B7000C7F800200A490880AFF201100D490860DB
:107B800001210B48FEF728FE70BD10B509480068BA
:107B9000804701210648FFF7F9F810BDF8000020E2
:107BA000700000206E000020780000206C00002093
:107BB000002C01407400002002010020B948007828
:107BC00040B9B9480088052804DD0020B64908807E
:107BD000012070470020FCE7F0B502460C4600206B
:107BE000092C00DD0924AF49097800293AD1002089
:107BF00003E000211154411C88B20928F9DB02205E
:107C000020E0AA4931F81010D12919DDA74931F82F
:107C10001010F92914DA811ECD1701EB5575ED10FE
:107C2000555D831EDE1703EB5676F610A3EBC607F1
:107C300080263E413543CE1701EB5676F61095551A
:107C4000411C88B24628DCDB002005E00021974B70
:107C500023F81010411C88B2B0F5007FF6DB01213B
:107C6000904B1970F0BD002000BF05E000218F4A45
:107C700022F81010411C88B2B0F5007FF6DB00211D
:107C8000894A1180704710B5044686480078C8B903
:107C9000012C02D100F0C0F90FE0022C02D100F05B
:107CA000C3F90AE0032C02D100F0C6F905E0042C68
:107CB00002D100F0C9F900E000BFFFF7D4FF0120B6
:107CC0007849087010BD10B57948006840B14FF090
:107CD0008040008C40F020004FF08041088408E094
:107CE0004FF08040008C4FF6DF7108404FF080412C
:107CF00008844FF08040FFF71CF86C496D4A1288E9
:107D000021F8120000214FF08040FEF7F9FF69488A
:107D10000088401C6749088008460088B0F5007F4D
:107D200004D1002008805F49087000E000BF10BD4A
:107D300010B55F48006840B14FF08040008C40F0C3
:107D400020004FF08041088408E04FF08040008C14
:107D50004FF6DF7108404FF0804108844FF08040BB
:107D6000FEF7E7FF5149534A128821F8120000211B
:107D70004FF08040FEF7C4FF4E480088401C4D493C
:107D8000088010BD00B589B0AFF25B004A490860B9
:107D900001210846FEF72BF801210420FEF71AF80E
:107DA0000220ADF8200004208DF8230008A94348E4
:107DB000FDF750FB02214148FDF7F9FB4FF47A60D3
:107DC000ADF8180040F2CF20ADF814000020ADF857
:107DD0001A00ADF8160005A94FF08040FEF7A0F993
:107DE0000420ADF804000220ADF806000120ADF833
:107DF00008000020ADF80A00ADF80C0001A94FF012
:107E00008040FEF720FC1C208DF8100002208DF829
:107E1000110000208DF8120001208DF8130004A835
:107E2000FEF741F8012204210807FEF7F0FC0122C9
:107E300011469007FEF7EBFC01218807FEF7CCFC0A
:107E400009B000BD10B5044621464FF08040FEF752
:107E5000C3FC10BD1748008830B1002011490870DC
:107E60001448008810490880002012490880704793
:107E700010B504210807FEF778FF30B10E480068FE
:107E8000804704210807FEF781FF01218807FEF7DC
:107E90006CFF28B1FFF7DEFF01218807FEF776FFB0
:107EA00010BD00008000002084000020020100209E
:107EB00004012142820000207C00002000080140D3
:107EC0000146088870472DE9F04105460E461746E1
:107ED000002407E036F814102846FFF7C2F8AD1C5E
:107EE000601C84B2BC42F5DBBDE8F08130B50346CE
:107EF0000C461546002207E01846FFF7E1FF24F87C
:107F000012009B1C501C82B2AA42F5DB30BD2DE949
:107F1000F05F80468A461746B8F1006F02D35E488C
:107F2000804501D3BDE8F09FFEF753FFA8F1006B39
:107F30004FEA9B25CBF34809C9F50074A74200DC42
:107F40003C464DE04FF0006101EB85208A14534917
:107F5000FFF7CCFF00260BE009EB06004F4931F894
:107F600010004FF6FF71884200D003E0701C86B20B
:107F7000A642F1DB00BFA6421BDA4FF0006101EB25
:107F80008520FEF76BFF002608E03AF8160006EBA6
:107F90000901424A22F81100701C86B2A642F4DBA5
:107FA0004FF0006101EB85208A143C49FFF78BFFFD
:107FB00004E0224651464046FFF785FFA74200D124
:107FC0000FE06D1C4FF000090AEB440AA044381B77
:107FD00087B2B7F5007F02DD4FF4007400E03C4645
:107FE000B0E700BFFEF701FF00BF9BE713B50446F3
:107FF000012201A92046FFF78AFF1CBD10B56422AB
:1080000027492848FFF783FF10BD00B564222449A3
:108010002448FFF76BFF00BD10B54FF400722249F2
:108020002248FFF774FF10BD10B54FF400721E49CF
:108030001F48FFF76CFF10BD10B54FF400721A49CE
:108040001C48FFF764FF10BD10B54FF400721649CD
:108050001948FFF75CFF10BD00B54FF400721249DC
:108060001248FFF743FF00BD00B54FF400720E4900
:108070000F48FFF73BFF00BD00B54FF400720A49FF
:108080000C48FFF733FF00BD00B54FF400720649FE
:108090000948FFF72BFF00BD000001080205002082
:1080A0000209002000FC00080201002000F800087E
:1080B00000F4000800F0000800EC000810B586B0DD
:1080C000044601210420FDF785FE01214804FDF747
:1080D0008EFE8B48FDF70CFB0420ADF81400022047
:1080E0008DF8160018208DF8170005A98548FDF7B2
:1080F000B1F90820ADF8140004208DF8170005A987
:108100008048FDF7A7F926208DF8000000208DF8A3
:1081100001008DF8020001208DF803006846FDF78C
:10812000C2FE01940020ADF80800ADF80A00ADF8D9
:108130000C00ADF810000C20ADF80E0000217048C6
:10814000FDF7A5FB01A96E48FDF715FB012240F2E2
:1081500025516B48FDF7A7FB01216948FDF797FB07
:1081600006B010BD10B504460BE000BF8021644886
:10817000FDF768FC0028F9D020786149091D0880C6
:10818000641C20780028F0D100BF80215C48FDF7F6
:1081900059FC0028F9D0FF205949091D088000BF6B
:1081A00080215748FDF74EFC0028F9D0FF205449A4
:1081B000091D088000BF80215148FDF743FC0028BD
:1081C000F9D0FF204E49091D088010BD10B540F2BE
:1081D00025514B48FDF74CFC00B34B480088322832
:1081E00017DA4748001D00884849494A12888854D0
:1081F00045480088401C4449088045480088401C88
:108200004349088008460088322807DB00200880A0
:1082100004E040F225513A48FDF721FC40F22441A8
:108220003748FDF725FC38B100203749088040F277
:1082300024413348FDF713FC40F227713048FDF725
:1082400017FC20B140F227712D48FDF708FC10BD46
:1082500030490988322904DA2C492E4A1288885C70
:1082600005E000212B4A118028491288885C2949A1
:108270000988491C274A11800021274A1160234A96
:10828000244B1B88D15420490988491E1E4A11805D
:108290000121224AC2F8941170471E4909883229E7
:1082A00004DA1A491B4A1288885C05E00021194A41
:1082B000118016491288885C7047164A1278521C41
:1082C000D1B2322902DA114A505C02E000210F4A91
:1082D000505C704770B506460C4625460A48008833
